:020000040800F2
:1000000000800120950400080D0400081B0400086E
:1000100021040008270400082D0400080000000047
:100020000000000000000000000000003304000891
:1000300041040008000000004F0400085D040008AF
:10004000E5040008E5040008E5040008E5040008EC
:10005000E5040008E5040008E5040008E5040008DC
:10006000E5040008E5040008E5040008E5040008CC
:10007000E5040008E5040008E5040008E5040008BC
:10008000E5040008E5040008E5040008000000009D
:10009000000000000000000000000000E50400086F
:1000A000E5040008E5040008E5040008E50400088C
:1000B000E5040008E5040008E5040008E50400087C
:1000C000E5040008E5040008E5040008E50400086C
:1000D000E5040008E5040008E5040008000000004D
:1000E000E5040008E5040008E5040008000000003D
:1000F000000000000000000000000000E50400080F
:1001000000000000E5040008E5040008E50400081C
:1001100000000000000000000000000000000000DF
:10012000E5040008E5040008E5040008E50400080B
:10013000E5040008000000000000000000000000CE
:10014000000000000000000000000000E5040008BE
:10015000E5040008E5040008E5040008E5040008DB
:10016000E5040008E50400080000000000000000AD
:10017000000000000000000000000000000000007F
:1001800000000000E504000800000000000000007E
:04019000E50400087A
:1001940010B5054C237833B9044B13B10448AFF3BD
:1001A40000800123237010BD0C000020000000001B
:1001B4008C0B000808B5034B1BB103490348AFF38C
:1001C400008008BD00000000100000208C0B000817
:1001D40080B582B000AF78607B681A687B689B88C2
:1001E4001946104600F07AFC0346002B0CBF01238D
:1001F4000023DBB2002B14D00A2000F0E5F97B6861
:100204001A687B689B881946104600F067FC034611
:10021400002B0CBF01230023DBB2002B01D00123F0
:1002240000E0002318460837BD4680BD80B582B083
:1002340000AF78607868FFF7CBFF0346002B08D047
:100244007B681B7A83F00103DBB2002B01D001230E
:1002540000E00023002B04D07B6801221A720123E2
:1002640015E07868FFF7B4FF034683F00103DBB2BF
:10027400002B05D07B681B7A002B01D0012300E002
:100284000023002B02D07B6800221A720023184638
:100294000837BD4680BD000080B588B000AF7860E7
:1002A400396007F10C0300221A605A609A60DA6020
:1002B4001A617B683A6892E8030083E803007B686C
:1002C40000221A727B689B88FB6000233B61012338
:1002D4007B617B681B6807F10C021146184600F02D
:1002E4007BFA00224FF400510B4800F00FFC4FF44E
:1002F4000053FB6001233B6100237B610023BB614E
:1003040007F10C031946044800F066FA7B681846A6
:100314002037BD4680BD00BF0000024080B584B0D8
:1003240000AF00F0DFF800237B601E4B1B6B1D4AFF
:1003340043F0040313631B4B1B6B03F004037B6048
:100344007B6800233B60174B1B6B164A43F0010389
:100354001363144B1B6B03F001033B603B68124AAD
:1003640007F1080392E8030083E803000F4B1B68BE
:1003740003F00103002B08D107F1080319460C48C8
:10038400FFF78AFF094B01221A600948FFF74EFF65
:100394000346002BF9D001224FF40051054800F028
:1003A400B5FBF2E700380240A40B0008340000203B
:1003B400280000200000024080B483B000AF002376
:1003C4007B60104B5B6C0F4A43F4804353640D4BCA
:1003D4005B6C03F480437B607B6800233B60094BC8
:1003E4001B6C084A43F080531364064B1B6C03F0E8
:1003F40080533B603B6800BF0C37BD465DF8047B0F
:10040400704700BF0038024080B400AF00BFBD4653
:100414005DF8047B704780B400AFFEE780B400AFA2
:10042400FEE780B400AFFEE780B400AFFEE780B41F
:1004340000AF00BFBD465DF8047B704780B400AFD9
:1004440000BFBD465DF8047B704780B400AF00BFB9
:10045400BD465DF8047B704780B500AF00F094F8AA
:1004640000BF80BD80B400AF084BD3F88830074A82
:1004740043F47003C2F88830044B4FF000629A6072
:1004840000BFBD465DF8047B704700BF00ED00E08F
:10049400DFF834D0002103E00C4B5B5843500431A7
:1004A4000B480C4B42189A42F6D30B4A02E0002345
:1004B40042F8043B094B9A42F9D3FFF7D3FF00F00B
:1004C4003FFBFFF72BFF704700800120B40B0008AF
:1004D400000000200C0000200C0000203C00002044
:1004E400FEE7000080B500AF0E4B1B680D4A43F4D5
:1004F400007313600B4B1B680A4A43F48063136058
:10050400084B1B68074A43F480731360032000F010
:100514002FF9002000F008F8FFF74EFF00231846DB
:1005240080BD00BF003C024080B582B000AF78605F
:10053400124B1A68124B1B7819464FF47A73B3FBAB
:10054400F1F3B2FBF3F3184600F039F90346002B3C
:1005540001D001230EE07B680F2B0AD800227968B2
:100564004FF0FF3000F00FF9064A7B681360002358
:1005740000E0012318460837BD4680BD0000002076
:10058400080000200400002080B400AF064B1B7854
:100594001A46064B1B681344044A136000BFBD4649
:1005A4005DF8047B704700BF08000020380000207D
:1005B40080B400AF034B1B681846BD465DF8047B4E
:1005C400704700BF3800002080B584B000AF786069
:1005D400FFF7EEFFB8607B68FB60FB68B3F1FF3F99
:1005E40005D0094B1B781A46FB681344FB6000BF17
:1005F400FFF7DEFF0246BB68D31AFA689A42F7D8BF
:1006040000BF1037BD4680BD0800002080B485B00F
:1006140000AF78607B6803F00703FB600C4BDB687A
:10062400BB60BA684FF6FF031340BB60FB681A0255
:10063400BB68134343F0BF6343F40033BB60044A15
:10064400BB68D36000BF1437BD465DF8047B7047B8
:1006540000ED00E080B400AF044BDB681B0A03F03C
:1006640007031846BD465DF8047B704700ED00E0C3
:1006740080B483B000AF03463960FB7197F907304B
:10068400002B0ADB3B68DAB20C4997F907301201F8
:10069400D2B20B4483F800230AE03B68DAB208497B
:1006A400FB7903F00F03043B1201D2B20B441A7618
:1006B40000BF0C37BD465DF8047B704700E100E0E5
:1006C40000ED00E080B489B000AFF860B9607A60F2
:1006D400FB6803F00703FB61FB69C3F10703042B09
:1006E40028BF0423BB61FB690433062B02D9FB69D1
:1006F400033B00E000237B614FF0FF32BB6902FA49
:1007040003F3DA43BB681A407B699A404FF0FF3128
:100714007B6901FA03F3D9437B680B401343184602
:100724002437BD465DF8047B7047000080B582B075
:1007340000AF78607B68013BB3F1807F01D3012374
:100744000FE00A4A7B68013B53600F214FF0FF30F2
:10075400FFF78EFF054B00229A60044B07221A60B4
:10076400002318460837BD4680BD00BF10E000E0F6
:1007740080B582B000AF78607868FFF747FF00BFAC
:100784000837BD4680BD80B586B000AF0346B9606A
:100794007A60FB7300237B61FFF75CFF78617A6802
:1007A400B9687869FFF78EFF024697F90F30114652
:1007B4001846FFF75DFF00BF1837BD4680BD80B502
:1007C40082B000AF78607868FFF7B0FF0346184640
:1007D4000837BD4680BD000080B489B000AF7860A2
:1007E400396000237B6100233B610023BB6100234C
:1007F400FB6159E10122FB6902FA03F37B613B6867
:100804001B687A6913403B613A697B699A4240F0FC
:1008140048813B685B68012B0BD03B685B68022B0B
:1008240007D03B685B68112B03D03B685B68122BD5
:1008340030D17B689B68BB61FB695B00032202FAD1
:1008440003F3DB43BA691340BB613B68DA68FB69B5
:100854005B0002FA03F3BA691343BB617B68BA69AC
:100864009A607B685B68BB610122FB6902FA03F34F
:10087400DB43BA691340BB613B685B681B0903F047
:100884000102FB6902FA03F3BA691343BB617B6893
:10089400BA695A607B68DB68BB61FB695B00032251
:1008A40002FA03F3DB43BA691340BB613B689A68FD
:1008B400FB695B0002FA03F3BA691343BB617B680B
:1008C400BA69DA603B685B68022B03D03B685B68FB
:1008D400122B23D1FB69DA087B68083253F82230E3
:1008E400BB61FB6903F007039B000F2202FA03F3C9
:1008F400DB43BA691340BB613B681A69FB6903F0C7
:1009040007039B0002FA03F3BA691343BB61FB6953
:10091400DA087B680832B96943F822107B681B68DF
:10092400BB61FB695B00032202FA03F3DB43BA6990
:100934001340BB613B685B6803F00302FB695B0027
:1009440002FA03F3BA691343BB617B68BA691A609C
:100954003B685B6803F08053002B00F0A280002307
:10096400FB60564B5B6C554A43F480435364534BD2
:100974005B6C03F48043FB60FB68514AFB699B0892
:10098400023352F82330BB61FB6903F003039B007D
:100994000F2202FA03F3DB43BA691340BB617B689D
:1009A400484A934219D07B68474A934213D07B68E4
:1009B400464A93420DD07B68454A934207D07B68F0
:1009C400444A934201D1042308E0072306E00323A9
:1009D40004E0022302E0012300E00023FA6902F0AC
:1009E400030292009340BA691343BB613449FB6923
:1009F4009B080233BA6941F82320374B1B68BB615B
:100A04003B69DB43BA691340BB613B685B6803F431
:100A14008033002B03D0BA693B691343BB612E4A70
:100A2400BB6913602C4B5B68BB613B69DB43BA69F0
:100A34001340BB613B685B6803F40033002B03D0B5
:100A4400BA693B691343BB61234ABB695360224BB8
:100A54009B68BB613B69DB43BA691340BB613B687C
:100A64005B6803F48013002B03D0BA693B6913431A
:100A7400BB61194ABB699360174BDB68BB613B6977
:100A8400DB43BA691340BB613B685B6803F4001342
:100A9400002B03D0BA693B691343BB610E4ABB699F
:100AA400D360FB690133FB61FB690F2B7FF6A2AEB8
:100AB40000BF2437BD465DF8047B70470038024010
:100AC40000380140000002400004024000080240D7
:100AD400000C024000100240003C014080B485B08C
:100AE40000AF78600B467B807B681A697B88134073
:100AF400002B02D00123FB7301E00023FB73FB7B7B
:100B040018461437BD465DF8047B704780B483B043
:100B140000AF78600B467B8013467B707B78002B9C
:100B240003D07A887B689A6103E07B881A047B6827
:100B34009A6100BF0C37BD465DF8047B7047000026
:100B440070B50D4E0D4CA41BA4100025A54209D16F
:100B54000B4E0C4C00F018F8A41BA4100025A54261
:100B640005D170BD56F8253098470135EEE756F8A3
:100B7400253098470135F2E7AC0B0008AC0B0008B0
:100B8400AC0B0008B00B0008F8B500BFF8BC08BCFB
:100B94009E467047F8B500BFF8BC08BC9E46704737
:080BA4000008024000200000DF
:040BAC00B901000883
:040BB00095010008A3
:0C0BB4000024F40010000000010000000C
:040000050800049556
:00000001FF
