:020000040800F2
:1000000000800120D110000855100008631000087E
:10001000691000086F10000875100008000000004B
:100020000000000000000000000000007B1000083D
:10003000891000080000000097100008F90F000860
:1000400021110008211100082111000821110008C8
:1000500021110008211100082111000821110008B8
:1000600021110008211100082111000821110008A8
:100070002111000821110008211100082111000898
:1000800021110008211100082111000800000000C2
:100090000000000000000000000000002111000826
:1000A0002111000821110008211100082111000868
:1000B0002111000821110008211100082111000858
:1000C0002111000821110008211100082111000848
:1000D0002111000821110008211100080000000072
:1000E0002111000821110008211100080000000062
:1000F00000000000000000000000000021110008C6
:100100000000000021110008211100082111000841
:1001100000000000000000000000000000000000DF
:1001200021110008211100082111000821110008E7
:100130002111000800000000000000000000000085
:100140000000000000000000000000002111000875
:1001500021110008211100082111000821110008B7
:10016000211100082111000800000000000000001B
:10017000000000000000000000000000000000007F
:100180000000000021110008000000000000000035
:040190002111000831
:1001940010B5054C237833B9044B13B10448AFF3BD
:1001A40000800123237010BD18000020000000000F
:1001B400D817000808B5034B1BB103490348AFF334
:1001C400008008BD000000001C000020D8170008B3
:1001D40080B487B000AFF860B9607A600023FB7523
:1001E4000023BB75BB7D022B40D800237B757B7D30
:1001F400042B33D8BB681978BA7D13469B0013448B
:100204007A681A447B7DD35C994223D11A4B1B78BC
:10021400002B02D0012B0DD019E0BA7D13469B00B0
:1002240013447A681A447B7D5821D154124B01221D
:100234001A700CE0BA7D13469B0013447A681A4482
:100244007B7D4F21D1540C4B00221A7000BF012337
:10025400FB7503E07B7D01337B75C8E7FB7D002BD9
:1002640003D1BB7D0133BB75BCE700BF00BF1C37A6
:10027400BD465DF8047B70473400002080B584B02F
:1002840000AF786039600123FB7305233B730023BF
:10029400BB73BB7B022B21D8FB7B052219467868F4
:1002A40000F07AFDFB7B0133FB7300237B737B7BC4
:1002B400042B0FD8BA7B13469B0013443A681A44A4
:1002C4007B7BD35C1946786800F08EFD7B7B013321
:1002D4007B73ECE7BB7B0133BB73DAE700BF1037FA
:1002E400BD4680BD80B487B000AF78600023BB8179
:1002F4000023FB750023BB75BB7D022B2ED8BA7D72
:1003040013469B0013447A6813441B783B750223FD
:100314007B757B7D042B11D8BA7D13469B00134457
:100324007A681A447B7DD35C3A7D9A4202D1FB7D84
:100334000133FB757B7D02337B75EAE7FB7D022B82
:1003440006D101233B733B7D7B73BB893B8207E072
:100354000023FB75BB7D0133BB75CDE7BB893B82B5
:1003640000233A7C62F307037A7C62F30F23184676
:100374001C37BD465DF8047B704780B487B000AF7E
:1003840078600023BB810023FB750023BB75BB7D14
:10039400042B2AD8BB7D7A68D35C3B7501237B751B
:1003A4007B7D022B11D87A7D13469B0013447A6817
:1003B4001A44BB7DD35C3A7D9A4202D1FB7D013362
:1003C400FB757B7D01337B75EAE7FB7D022B06D150
:1003D40001233B733B7D7B73BB893B8207E0002396
:1003E400FB75BB7D0233BB75D1E7BB893B82002320
:1003F4003A7C62F307037A7C62F30F2318461C37B6
:10040400BD465DF8047B704780B485B000AF78606A
:1004140000233B817B681A787B6805339B789A427A
:100424000ED17B681A787B680A331B799A4207D10C
:1004340001233B727B681B787B723B89BB8117E08D
:100444007B681A797B6805339B789A420ED17B6866
:100454001A797B680A331B789A4207D101233B72CD
:100464007B681B797B723B89BB8101E03B89BB8143
:1004740000233A7B62F307037A7B62F30F23184667
:100484001437BD465DF8047B7047000080B582B028
:1004940000AF7860786800F0C4FC0122002178681D
:1004A40000F07AFC1149786800F0AEFC01220121C9
:1004B400786800F071FC0E49786800F0A5FC012210
:1004C4000221786800F068FC0A49786800F09CFC16
:1004D40001220321786800F05FFC0749786800F086
:1004E40093FC00BF0837BD4680BD00BFF01700086D
:1004F40004180008181800082C18000880B582B0E9
:1005040000AF7860786800F08CFC042200217868E1
:1005140000F042FC1149786800F076FC00220121C9
:10052400786800F039FC0E49786800F06DFC002210
:100534000221786800F030FC0A49786800F064FC15
:1005440000220321786800F027FC0749786800F04E
:100554005BFC00BF0837BD4680BD00BF40180008E3
:100564004C1800085C1800087018000880B582B0A8
:1005740000AF7860786800F054FC042200217868A9
:1005840000F00AFC2649786800F03EFC00220121B4
:10059400786800F001FC2349786800F035FC0022FB
:1005A4000221786800F0F8FB1F49786800F02CFC01
:1005B40000220321786800F0EFFB1C49786800F002
:1005C40023FC40F2DC5000F01DFE786800F029FCAA
:1005D40004220021786800F0DFFB1549786800F0F8
:1005E40013FC00220121786800F0D6FB11497868D9
:1005F40000F00AFC00220221786800F0CDFB0E49CD
:10060400786800F001FC00220321786800F0C4FB44
:100614000A49786800F0F8FB00BF0837BD4680BD82
:10062400801800088C180008A0180008B4180008E6
:10063400C4180008D0180008E4180008F8180008C6
:1006440090B589B000AF78603960786800F0E9FB54
:1006540003220021786800F09FFB2C49786800F0A1
:10066400D3FB2B4B07F110040FCB07C423800234B8
:100674001B0C237007F1100319467868FFF7FEFD81
:10068400386800F093F90346FB73FB7B422B06D1D9
:100694007868FFF733FF1F4B00221A7033E007F12D
:1006A400100207F10F0319467868FFF791FD002344
:1006B400FB77FB7F022BDDD8FB7F174A52F82330F0
:1006C40007F11002104698470346BB813B7B002B81
:1006D40014D00D220121786800F05EFB7B7B582B3F
:1006E40004D10E49786800F08FFB0BE07B7B4F2B25
:1006F40004D10B49786800F087FB03E0FB7F0133EA
:10070400FB77D6E7B6E72437BD4690BD0C19000841
:1007140028190008340000200000002018190008DF
:100724002019000880B584B000AF78600B46FB70D8
:100734000023FB73FB7B032B28D8FA7BFB789A42BC
:1007440010D17B681A68FB7BDB00134418687B6854
:100754001A68FB7BDB0013449B880022194600F0D7
:10076400F3FF0FE07B681A68FB7BDB001344186817
:100774007B681A68FB7BDB0013449B8801221946C3
:1007840000F0E2FFFB7B0133FB73D3E700BF1037BC
:10079400BD4680BD80B582B000AF78600B46FB706B
:1007A4007B685A68FB78DB00134418687B685A68D6
:1007B400FB78DB0013449B88194600F0ADFF034629
:1007C400002B0CBF01230023DBB2002B1BD00F2016
:1007D40000F018FD7B685A68FB78DB001344186846
:1007E4007B685A68FB78DB0013449B88194600F049
:1007F40093FF0346002B0CBF01230023DBB2002B25
:1008040001D0012300E0002318460837BD4680BD0F
:1008140080B5AEB000AFF860B9607A6007F1140338
:1008240050220021184600F0CDFF07F16403502246
:100834000021184600F0C6FFFB68BA681A60FB681E
:100844007A685A60002387F8B73097F8B730032BDB
:100854001DD8002387F8B63097F8B630032B10D88C
:1008640097F8B72097F8B630F96892000A44134411
:10087400083300221A7097F8B630013387F8B6307F
:10088400EAE797F8B730013387F8B730DDE700239C
:1008940087F8B53097F8B530032B37D8FB681A685A
:1008A40097F8B530DB0013449B8897F8B5201946B8
:1008B40013469B0013449B0007F1B8021344A43B66
:1008C400196097F8B52013469B0013449B0007F169
:1008D400B8021344A03B01221A60FB681A6897F817
:1008E400B530DB001344186897F8B52007F11401FC
:1008F40013469B0013449B000B44194600F08AFDE9
:1009040097F8B530013387F8B530C3E7002387F88B
:10091400B43097F8B430032B43D8FB685A6897F87F
:10092400B430DB0013449B8897F8B420194613466F
:100934009B0013449B0007F1B8021344543B196015
:1009440097F8B42013469B0013449B0007F1B802A8
:100954001344503B00221A6097F8B42013469B00BE
:1009640013449B0007F1B80213444C3B01221A6064
:10097400FB685A6897F8B430DB001344186897F89A
:10098400B42007F1640113469B0013449B000B44FD
:10099400194600F03FFD97F8B430013387F8B430BE
:1009A400B7E7FB681846B837BD4680BD80B584B04C
:1009B40000AF78600023FB73FB7B032B5FD8FB7BCA
:1009C40019467868FFF7AEFE0023BB73BB7B032B8D
:1009D40051D8BB7B19467868FFF7DCFE0346002B31
:1009E4000ED0FA7BBB7B796892000A441344083327
:1009F4001B7883F00103DBB2002B01D0012300E05C
:100A04000023002B10D0FA7BBB7B796892000A4448
:100A14001344083301221A70FA7BBB7B1A499200F3
:100A24000A4413441B782BE0BB7B19467868FFF714
:100A3400B1FE034683F00103DBB2002B0BD0FA7B3B
:100A4400BB7B796892000A44134408331B78002B5B
:100A540001D0012300E00023002B08D0FA7BBB7BEC
:100A6400796892000A441344083300221A70BB7B4D
:100A74000133BB73AAE7FB7B0133FB739CE70023C1
:100A840018461037BD4680BDB019000880B586B041
:100A940000AF78600B46FB701346BB7000233B74B9
:100AA40001237B740023FB600023FB75BB78BB75BB
:100AB400BA7DBB7804339A4215DAFA78BB7D0121FA
:100AC40001FA03F31A40BB7D1A41FB7DD2B207F150
:100AD40018010B4403F80C2CFB7D0133FB75BB7D23
:100AE4000133BB75E4E700237B757B7D032B1CD8A6
:100AF4007A7D7B68023253F832007B7D7A68023358
:100B0400DB00134499887B7D07F11802134413F822
:100B14000C3C07F11802134413F8083C1A4600F081
:100B240013FE7B7D01337B75DFE77B6898687B6808
:100B34009B890122194600F007FE012000F062FBA8
:100B44007B6898687B689B890022194600F0FCFD4D
:100B5400012000F057FB00BF1837BD4680BD80B5AB
:100B640082B000AF78600B46FB701346BB707B68A5
:100B740018687B689B88FA78194600F0E5FDBB7815
:100B8400042219467868FFF781FFBB7800221946D2
:100B94007868FFF77BFF00BF0837BD4680BD80B58E
:100BA40082B000AF786039603B681B78002B0AD0B4
:100BB4003B681B781A4601217868FFF7D0FF3B6831
:100BC40001333B60F0E700BF0837BD4680BD00003D
:100BD40080B5B0B000AFF860B9607A603B6007F1EF
:100BE400400378220021184600F0ECFDBA6807F1B2
:100BF400100392E8030083E803007A6807F11803FE
:100C040092E8030083E803003A6807F1200392E8BE
:100C1400030083E80300D7F8C82007F1280392E80B
:100C2400030083E80300D7F8CC2007F1300392E8EF
:100C3400030083E80300D7F8D02007F1380392E8D3
:100C4400030083E80300002387F8BF3097F8BF3020
:100C5400052B39D897F8BF30DB0007F1C0021344E5
:100C640033F8AC3C97F8BF20194613469B00134455
:100C74009B0007F1C0021344803B196097F8BF2022
:100C840013469B0013449B0007F1C00213447C3BB2
:100C940001221A6097F8BF30DB0007F1C002134449
:100CA40053F8B00C97F8BF2007F1400113469B009E
:100CB40013449B000B44194600F0ACFB97F8BF307B
:100CC400013387F8BF30C1E7FB68BA6892E80300D4
:100CD40083E80300FB687A68083392E8030083E83A
:100CE4000300FB683A68103392E8030083E80300CA
:100CF400FB68D7F8C820183392E8030083E80300A0
:100D0400FB68D7F8CC20203392E8030083E8030083
:100D1400FB68D7F8D020283392E8030083E8030067
:100D2400102000F06FFA03220021F868FFF717FF84
:100D3400052000F067FA03220021F868FFF70FFF8F
:100D4400012000F05FFA134A07F1B80392E80300A8
:100D5400186004331970002387F8BE3097F8BE304A
:100D6400042B11D897F8BE3007F1C002134413F8CE
:100D7400083C1A460021F868FFF7F1FE97F8BE30E8
:100D8400013387F8BE30E9E7FB681846C037BD4633
:100D940080BD00BF3819000880B582B000AF78600C
:100DA4000B46FB701346BB70FB78032B15D8BB783E
:100DB400132B12D8FA78B9780A4813469B001344C7
:100DC4009B0003440B441B7863F07F03DBB21A4699
:100DD40000217868FFF7C3FE00E000BF0837BD4676
:100DE40080BD00BFC019000880B582B000AF786034
:100DF4000B46FB70FB781A4601217868FFF7AFFEBB
:100E040000BF0837BD4680BD80B582B000AF7860B2
:100E1400396039687868FFF7C2FE00BF0837BD46FD
:100E240080BD80B582B000AF78600122002178686F
:100E3400FFF795FE00BF0837BD4680BDB0B5A4B02E
:100E440004AF00F06DF90023BB605D4B1B6B5C4A83
:100E540043F0010313635A4B1B6B03F00103BB60A4
:100E6400BB6800237B60564B1B6B554A43F002035F
:100E74001363534B1B6B03F002037B607B680023FB
:100E84003B604F4B1B6B4E4A43F0040313634C4BC4
:100E94001B6B03F004033B603B684A4B07F15C04A3
:100EA4001D460FCD0FC495E80F0084E80F00464B94
:100EB40007F13C041D460FCD0FC495E80F0084E8EC
:100EC4000F00424A07F1340392E8030083E8030069
:100ED4003F4A07F12C0392E8030083E803003D4AEC
:100EE40007F1240392E8030083E803003A4A07F178
:100EF4001C0392E8030083E80300384A07F1140353
:100F040092E8030083E80300354A07F10C0392E8F2
:100F1400030083E80300334B1B6803F00103002B39
:100F24000AD107F13C0207F15C0319462E48FFF78A
:100F34006FFC2C4B01221A602C4B1B6803F001033D
:100F4400002B15D107F1240007F12C0207F134011D
:100F540007F10C03029307F11403019307F11C0337
:100F6400009303462248FFF733FE204B01221A6008
:100F74001F48FFF78BFA40F2DC5000F043F91C489D
:100F8400FFF7BCFA1848FFF711FD034687F87F30D6
:100F940097F87F30412B04D0422B07D03D2B09D04A
:100FA4000CE011491248FFF74BFB07E01048FFF72C
:100FB400A5FA03E00E48FFF7D9FA00BFE2E700BF45
:100FC4000038024040190008601900088019000820
:100FD400881900089019000898190008A019000839
:100FE400A8190008500000203800002084000020C8
:100FF4005400002080B500AF00F0E4F800BF80BDCD
:1010040080B483B000AF00237B60104B5B6C0F4A4D
:1010140043F4804353640D4B5B6C03F480437B6067
:101024007B6800233B60094B1B6C084A43F08053E8
:101034001364064B1B6C03F080533B603B6800BF9A
:101044000C37BD465DF8047B704700BF0038024092
:1010540080B400AF00BFBD465DF8047B704780B428
:1010640000AFFEE780B400AFFEE780B400AFFEE758
:1010740080B400AFFEE780B400AF00BFBD465DF8AA
:10108400047B704780B400AF00BFBD465DF8047BAD
:10109400704780B400AF00BFBD465DF8047B704765
:1010A40080B400AF084BD3F88830074A43F4700388
:1010B400C2F88830044B4FF000629A6000BFBD460E
:1010C4005DF8047B704700BF00ED00E0DFF834D02A
:1010D400002103E00C4B5B58435004310B480C4B8C
:1010E40042189A42F6D30B4A02E0002342F8043B2A
:1010F400094B9A42F9D3FFF7D3FF00F03FFBFFF708
:101104009DFE704700800120181A0008000000208E
:1011140018000020180000208C000020FEE70000CA
:1011240080B500AF0E4B1B680D4A43F40073136087
:101134000B4B1B680A4A43F480631360084B1B681B
:10114400074A43F480731360032000F02FF9002052
:1011540000F008F8FFF754FF0023184680BD00BFD5
:10116400003C024080B582B000AF7860124B1A6830
:10117400124B1B7819464FF47A73B3FBF1F3B2FBAD
:10118400F3F3184600F039F90346002B01D001238C
:101194000EE07B680F2B0AD8002279684FF0FF30ED
:1011A40000F00FF9064A7B681360002300E0012376
:1011B40018460837BD4680BD0C00002014000020EE
:1011C4001000002080B400AF064B1B781A46064B73
:1011D4001B681344044A136000BFBD465DF8047BDA
:1011E400704700BF140000208800002080B400AFC6
:1011F400034B1B681846BD465DF8047B704700BF6F
:101204008800002080B584B000AF7860FFF7EEFF5F
:10121400B8607B68FB60FB68B3F1FF3F05D0094B06
:101224001B781A46FB681344FB6000BFFFF7DEFF20
:101234000246BB68D31AFA689A42F7D800BF10373F
:10124400BD4680BD1400002080B485B000AF786036
:101254007B6803F00703FB600C4BDB68BB60BA6878
:101264004FF6FF031340BB60FB681A02BB681343CD
:1012740043F0BF6343F40033BB60044ABB68D360EC
:1012840000BF1437BD465DF8047B704700ED00E0F5
:1012940080B400AF044BDB681B0A03F00703184655
:1012A400BD465DF8047B704700ED00E080B483B078
:1012B40000AF03463960FB7197F90730002B0ADB56
:1012C4003B68DAB20C4997F907301201D2B20B44E9
:1012D40083F800230AE03B68DAB20849FB7903F09B
:1012E4000F03043B1201D2B20B441A7600BF0C3731
:1012F400BD465DF8047B704700E100E000ED00E0CE
:1013040080B489B000AFF860B9607A60FB6803F01C
:101314000703FB61FB69C3F10703042B28BF042304
:10132400BB61FB690433062B02D9FB69033B00E074
:1013340000237B614FF0FF32BB6902FA03F3DA4307
:10134400BB681A407B699A404FF0FF317B6901FA10
:1013540003F3D9437B680B40134318462437BD4637
:101364005DF8047B7047000080B582B000AF786000
:101374007B68013BB3F1807F01D301230FE00A4A6C
:101384007B68013B53600F214FF0FF30FFF78EFF66
:10139400054B00229A60044B07221A60002318466A
:1013A4000837BD4680BD00BF10E000E080B582B0C4
:1013B40000AF78607868FFF747FF00BF0837BD4685
:1013C40080BD80B586B000AF0346B9607A60FB7318
:1013D40000237B61FFF75CFF78617A68B9687869FC
:1013E400FFF78EFF024697F90F3011461846FFF7B4
:1013F4005DFF00BF1837BD4680BD80B582B000AF29
:1014040078607868FFF7B0FF034618460837BD4692
:1014140080BD000080B489B000AF786039600023DB
:101424007B6100233B610023BB610023FB6159E125
:101434000122FB6902FA03F37B613B681B687A694A
:1014440013403B613A697B699A4240F048813B68AA
:101454005B68012B0BD03B685B68022B07D03B68B1
:101464005B68112B03D03B685B68122B30D17B681F
:101474009B68BB61FB695B00032202FA03F3DB4355
:10148400BA691340BB613B68DA68FB695B0002FA26
:1014940003F3BA691343BB617B68BA699A607B68DA
:1014A4005B68BB610122FB6902FA03F3DB43BA699F
:1014B4001340BB613B685B681B0903F00102FB69D5
:1014C40002FA03F3BA691343BB617B68BA695A60D1
:1014D4007B68DB68BB61FB695B00032202FA03F3F0
:1014E400DB43BA691340BB613B689A68FB695B00E4
:1014F40002FA03F3BA691343BB617B68BA69DA6021
:101504003B685B68022B03D03B685B68122B23D1DA
:10151400FB69DA087B68083253F82230BB61FB6947
:1015240003F007039B000F2202FA03F3DB43BA69BB
:101534001340BB613B681A69FB6903F007039B0016
:1015440002FA03F3BA691343BB61FB69DA087B68E7
:101554000832B96943F822107B681B68BB61FB69D8
:101564005B00032202FA03F3DB43BA691340BB6155
:101574003B685B6803F00302FB695B0002FA03F358
:10158400BA691343BB617B68BA691A603B685B68DC
:1015940003F08053002B00F0A2800023FB60564B25
:1015A4005B6C554A43F480435364534B5B6C03F4C4
:1015B4008043FB60FB68514AFB699B08023352F885
:1015C4002330BB61FB6903F003039B000F2202FA83
:1015D40003F3DB43BA691340BB617B68484A934217
:1015E40019D07B68474A934213D07B68464A93429A
:1015F4000DD07B68454A934207D07B68444A9342A6
:1016040001D1042308E0072306E0032304E00223B6
:1016140002E0012300E00023FA6902F003029200D1
:101624009340BA691343BB613449FB699B08023395
:10163400BA6941F82320374B1B68BB613B69DB4324
:10164400BA691340BB613B685B6803F48033002BC9
:1016540003D0BA693B691343BB612E4ABB6913606B
:101664002C4B5B68BB613B69DB43BA691340BB61CC
:101674003B685B6803F40033002B03D0BA693B6911
:101684001343BB61234ABB695360224B9B68BB6114
:101694003B69DB43BA691340BB613B685B6803F495
:1016A4008013002B03D0BA693B691343BB61194A09
:1016B400BB699360174BDB68BB613B69DB43BA6969
:1016C4001340BB613B685B6803F40013002B03D039
:1016D400BA693B691343BB610E4ABB69D360FB69BA
:1016E4000133FB61FB690F2B7FF6A2AE00BF2437E9
:1016F400BD465DF8047B7047003802400038014065
:10170400000002400004024000080240000C0240B5
:1017140000100240003C014080B485B000AF786006
:101724000B467B807B681A697B881340002B02D0B0
:101734000123FB7301E00023FB73FB7B1846143782
:10174400BD465DF8047B704780B483B000AF786019
:101754000B467B8013467B707B78002B03D07A8802
:101764007B689A6103E07B881A047B689A6100BFF6
:101774000C37BD465DF8047B7047000070B50D4E14
:101784000D4CA41BA4100025A54209D10B4E0C4CF2
:1017940000F020F8A41BA4100025A54205D170BDBB
:1017A40056F8253098470135EEE756F82530984726
:1017B4000135F2E7101A0008101A0008101A000880
:1017C400141A000802440346934200D1704703F8F8
:1017D400011BF9E7F8B500BFF8BC08BC9E4670478A
:0C17E400F8B500BFF8BC08BC9E4670477A
:1017F0007C20202057454C434F4D45202020202061
:10180000207C00007C202020544F2054484520207C
:1018100020202020207C00007C20202054494320D0
:1018200054414320544F4520207C00007C20202040
:10183000544F55524E414D454E542020207C0000BF
:1018400047616D65204D656E75000000317C327C0E
:1018500033202020413A537461727400347C357C0B
:1018600036202020423A4261636B2F45786974002C
:10187000377C387C39202020233A52756C65730000
:1018800052756C6528312F32290000005072657343
:101890007320746865206E756D6265727300000058
:1018A000746F20706C6163652058206F72204F2028
:1018B000746F00007468652067616D6520626F61F8
:1018C0007264000052756C6528322F3229000000C6
:1018D0005820697320746F20706C617965722031B3
:1018E000000000004F20697320746F20706C6179D4
:1018F0006572203200000000506C617965727320BF
:1019000074616B65207475726E73000054494320D6
:1019100054414320544F450050312077696E730085
:1019200050322077696E7300317C327C33347C35E1
:101930007C36377C387C39000228010C0600000018
:10194000000802404000000000000240400000008B
:10195000000002408000000000040240400000003F
:1019600000000240010000000000024002000000F0
:1019700000000240100000000004024001000000CE
:1019800000080240010000000008024002000000C0
:1019900000080240040000000008024008000000A7
:1019A0000008024010000000000802402000000073
:1019B0003738394134353642313233432A303D44A9
:1019C000000102030405060708090A0B0C0D0E0F9F
:1019D00010111213404142434445464748494A4B7F
:1019E0004C4D4E4F505152531415161718191A1BBF
:1019F0001C1D1E1F202122232425262754555657FF
:101A000058595A5B5C5D5E5F6061626364656667DE
:041A1000B901000810
:041A14009501000830
:101A1800E90200087F0300080D0400080024F40010
:081A28001000000001000000A5
:04000005080010D10E
:00000001FF
